:100000000C943E020C9485020C9485020C9485029B
:100010000C9485020C9485020C9485020C94850244
:100020000C9485020C9485020C94021C0C94D61C32
:100030000C9476130C9485020C9485020C94850222
:100040000C9485020C9485020C9485020C94850214
:100050000C9485020C94DC130C9485020C9485029C
:100060000C9485020C9485020C9485020C948502F4
:100070000C9485020C9485020C9485020C948502E4
:100080000C9485020C9485020C9485020C948502D4
:100090000C9485020C9485020C9485020C948502C4
:1000A0000C9485020C9485020C94850202E32003D3
:1000B000E3002E001E001F0020002100220023006C
:1000C00024002500260027002D002B0014001A0014
:1000D000090013000A000D000F0018001C00330077
:1000E0003100E000040015001600170007000B00A7
:1000F000110008000C0012003400E1001D001B007C
:100100000600190005000E00100036003700380008
:10011000E50000003500407050004F000000000076
:10012000510052002F00300000002A002900E20098
:100130000151E000E300E300E0000151E600280087
:100140002C003A003B003C003D003E003F004000D8
:1001500041004200430044004500AB0001000100A3
:100160000100010001000100010001000100010087
:10017000A900AE00010001000100010001005000D3
:10018000510052004F000100A800AC000100010026
:100190000100010001000100010001000100010057
:1001A000AA000000010001004A004D00000000000C
:1001B0004E004B00010001000000010001000100A1
:1001C0000100010001000100010001000100010027
:1001D000010000000000000000002A2B28000000A1
:1001E00000000000000000000000000000290000E6
:1001F00000002C1E3420212224342627252E362DC3
:100200003738271E1F202122232425263333362E5C
:1002100037381F0405060708090A0B0C0D0E0F10CE
:100220001112131415161718191A1B1C1D2F313013
:10023000232D350405060708090A0B0C0D0E0F10B7
:100240001112131415161718191A1B1C1D2F3130F3
:10025000354C00000000000000000000000000001D
:10026000000000000000000000000000000000008E
:100270000000000101010101010001010101000074
:10028000000000000000000000000000010001006C
:10029000010101010101010101010101010101014E
:1002A0000101010101010101010101010100000041
:1002B000010100000000000000000000000000003C
:1002C000000000000000000000000000000101012B
:1002D00001001003510069006E00650073006900A1
:1002E00073000000160371006D006B006200750062
:1002F00069006C00640065007200000004030904DA
:1003000009026D00040100A0FA09040000010301C4
:1003100001000921110100012240000705810308A5
:10032000000A090401000103010200092111010072
:1003300001224D000705820308000A09040200019A
:100340000300000009211101000122360007058386
:100350000308000A09040300010300000009211139
:100360000100012239000705840320000112011059
:100370000100000008EDFE606001000102000105BF
:10038000010906A101050719E029E71500250195D6
:100390000875018102050819012905950575019166
:1003A000029501750391010507190029F71500252C
:1003B0000195F875018102C005010980A10185023E
:1003C0001601002603001A81002A8300751095018A
:1003D0008100C0050C0901A1018503160100269CBE
:1003E000021A01002A9C02751095018100C00501C6
:1003F0000902A1010901A10005091901290515003A
:10040000250195057501810295017503810105019D
:10041000093009311581257F950275088106093853
:100420001581257F950175088106050C0A3802158E
:1004300081257F950175088106C0C005010906A1C7
:1004400001050719E029E7150025019508750181C7
:1004500002950175088101050819012905950575A1
:100460000191029501750391010507190029FF15F6
:100470000026FF00950675088100C00011241FBEEC
:10048000CFEFDAE0DEBFCDBF04B603FE27C0809118
:100490004D0290914E02A0914F02B09150028730D0
:1004A000904BA740B04BD1F410924D0210924E02E7
:1004B00010924F021092500214BE84B7877F84BFFF
:1004C0000FB6F894A89580916000886180936000D1
:1004D000109260000FBEE0E0F8E3099511E0A0E0A3
:1004E000B1E0E0EDF0E402C005900D92AA33B1074F
:1004F000D9F722E0AAE3B1E001C01D92AD34B20702
:10050000E1F70E944F190C9417200C94000090E022
:1005100080E00895089508958034904741F4FB01E8
:100520008281882321F08CEA90E00E94D70381E049
:100530000895089581E008950C948C020E94290C7E
:100540002FEF84E39CE0215080409040E1F700C011
:1005500000000C94FF13FF920F931F93CF93DF9330
:100560008C01FC01C081D18180917A0181113FC051
:1005700082818823B9F1CE010E945911F82E682F8B
:10058000CE010E940511BE018F2D0E940B04EC01CB
:10059000B8010E949C02882309F44AC0B801CE0128
:1005A0000E941706882309F443C0C531F0E7DF072E
:1005B00018F5C23080E7D80708F04BC0C115E0E756
:1005C000DE0789F1C130D047D1F181E080933C0151
:1005D00080933D01C801DF91CF911F910F91FF9052
:1005E0000C949A02CE010E943111F82ECCCFCE018C
:1005F0000E945911BE01C9CFCC3380E7D80709F456
:100600009AC0CD33D04709F7F8018281882309F4D5
:10061000B9C010923D010E94A61390933B018093B4
:100620003A0180E295C0F801828181110E949E0208
:1006300080E0DF91CF911F910F91FF900895F80115
:1006400082818823A9F380910D02816080930D023D
:10065000EFCFF8018281882309F4BCCF0E940713F1
:10066000811102C00E94ED120E94241390E0909329
:100670003F0280933E02FE01E350F04780913E022C
:100680008160E231F10538F4E75EFF4D0C94C71F3D
:1006900080913E02826080933E0280913E020E94E1
:1006A00028130E94290CC4CF80913E028460F3CFAE
:1006B00080913E028860EFCF80913E028061EBCF57
:1006C00080913E028062E7CF80913E028064E3CF5A
:1006D00080913E028068DFCF80913E028C60DBCF4C
:1006E00080913E028E7FD7CF80913E028D7FD3CF07
:1006F00080913E028B7FCFCF80913E02877FCBCF10
:1007000080913E028F7EC7CF80913E028F7DC3CF06
:1007100080913E028F7BBFCF80913E028F77BBCF0F
:1007200080913E02837FB7CF90913E02892F97FB45
:1007300087F98058B0CFF8018281882361F0109248
:100740003C010E94A61390933B0180933A0182E002
:100750000E94DF096DCF80913C0181110FC0809113
:100760003A0190913B010E94B213883C910530F40C
:1007700086E20E94B40886E20E94900982E00E940C
:10078000E60956CF80913D0181110FC080913A0159
:1007900090913B010E94B213883C910530F487E2AE
:1007A0000E94B40887E20E94900980E2E8CF0F938C
:1007B0001F93CF938C01F80124912223F9F030E0AC
:1007C000F901EE52FE4FC4912E5A3D4FF90124918A
:1007D000222379F081EE0E94B4088C2F0E94B40885
:1007E0008C2F0E94900981EE0E9490090F5F1F4F8D
:1007F000E2CF8C2F0E94B4088C2FF6CFCF911F919F
:100800000F9108950C9466060C9468060C94990256
:100810000C9406040895972F70E02CE0929F600DD1
:10082000711D1124FB0198E4899FE00DF11D112435
:10083000EE0FFF1FEE54FF4F859194910895FC0138
:10084000EE0FFF1FEE52FD4F8591949108950E9487
:100850000B040E949B05811520E4920708F08FC0CD
:10086000811540E3940708F0ECC0803E910508F044
:1008700073C0803C910508F0D0C0883A910590F48F
:10088000853A910508F0CEC08130910509F470C019
:10089000009709F46DC08430910508F069C090E0BC
:1008A00080E008958D3B9105D0F7883A910509F4D1
:1008B00003C1893A910509F402C18A3A910509F404
:1008C00001C18B3A910509F400C18C3A910509F4F4
:1008D000FFC08B3B910509F4FEC08C3B910509F4E8
:1008E000FDC08D3A910509F4FCC0803B910509F4E7
:1008F000FBC08E3A910509F4FAC08F3A910509F4CC
:10090000F9C0813B910509F4F8C0823B910509F4D7
:10091000F7C0833B910509F4F6C0843B910509F4C7
:10092000F5C0853B910509F4F4C0863B910509F4B7
:10093000F3C0873B910509F4F2C0883B910509F4A7
:10094000F1C0893B910509F4F0C08A3B910509F497
:10095000EFC080E094E408958F3F910509F048F4DA
:10096000803F910508F069C0883E910508F097CF57
:100970000895811560E2960708F061C00895811519
:1009800073E5970770F5811522E5920708F064C0BA
:10099000811541E5940708F05AC0811560E5960776
:1009A00008F452C09C0154E0369527955A95E1F71A
:1009B000922F9370282F26952695237070E2279FFB
:1009C00090011124392B837041E050E0BA0102C03C
:1009D000660F771F8A95E2F7CB01822B932B9C68D9
:1009E0000895811575E5970750F4811524E5920760
:1009F00008F443C0982F8827846F906A0895811562
:100A000046E5940708F44DC09C0130569F702115AF
:100A1000304108F044CF90620895805C91090E94B3
:100A20001F040895853A910509F440C0863A91055E
:100A300009F03FC082E890E40895906508959F70A2
:100A4000EECF9927906C08959F70906A0895982F23
:100A50008827816F906A0895AC014370552721E083
:100A600030E002C0220F331F4A95E2F78695869543
:100A700070E2879FC0011124B0CFAC0143705527AD
:100A800021E030E002C0220F331F4A95E2F786953D
:100A9000869540E2849FC0011124822B932B9A6893
:100AA0000895982F882788279F71B5CF81E890E413
:100AB000089583E890E4089582EE94E4089589EE21
:100AC00094E408958AEE94E4089585EB94E40895FF
:100AD00086EB94E4089583EB94E4089584EB94E426
:100AE000089587EB94E408958CEC94E408958DECDC
:100AF00094E4089583E895E408958AE895E40895D8
:100B000082E995E4089584E995E4089581E296E404
:100B1000089583E296E4089584E296E4089585E2D8
:100B200096E4089586E296E4089587E296E40895AF
:100B30008AE296E41DCF8238910549F1B0F4813301
:100B4000910509F462C048F48932910509F456C050
:100B50008A32910509F460C008958533910509F43E
:100B600046C08933910599F00895833E910531F18E
:100B700038F4803E910591F0823E9105B1F00895E0
:100B8000863E910521F1873E910551F1089520910E
:100B90003E022370D9F080EE90E0089520913E024D
:100BA00020FF14C089E390E0089520913E0222FFC7
:100BB0000DC024FD09C083EE90E0089520913E020F
:100BC00022FD31C024FF02C090E080E00895209112
:100BD0003E0223FFFBCF24FDF7CF87EE90E0089580
:100BE00020913E0223FFEECF86EE90E00895209103
:100BF0003E0225FFEBCF89E290E0089520913E026E
:100C000025FFE4CF85E390E0089520913E0226FF82
:100C1000DDCF8AE290E0089520913E0226FFD6CFF4
:100C200081E390E0089582EE90E0089508950F9397
:100C30001F93CF938C01FB018281811106C0C1E01B
:100C40008C2FCF911F910F910895C0914B01C1112D
:100C500025C00531104799F70E94160681E0809360
:100C60004B010E94A61390934A0180934901109270
:100C70003E011092400110923F01109242011092E9
:100C800041011092440110924301109246011092CA
:100C900045011092480110924701D2CF809149013D
:100CA00090914A010E94B213883C910540F68091D0
:100CB0003E01E82FF0E0EE0FFF1FE15CFE4F1183D5
:100CC00000838F5F80933E01C0E0BACF0C948A020C
:100CD0000C948B0285B7806885BF85B7806885BF17
:100CE000AFE1B1E061E070E08D91E82FE295EF7047
:100CF000F0E041A18F709B0101C0220F8A95EAF7B5
:100D0000922F9095942391A382A1822B82A381E0BC
:100D1000A532B80749F7A3E1B1E061E070E08D9139
:100D2000E82FE295EF70F0E041A18F709B0101C0C8
:100D3000220F8A95EAF7922F9095942391A382A18E
:100D4000822B82A381E0AF31B80749F7E8E5F1E0F3
:100D5000ACE4B1E084E691E0119211921D921D92F3
:100D60008E179F07C9F70C9402042F923F924F925F
:100D70005F926F927F928F929F92AF92BF92CF922B
:100D8000DF92EF92FF920F931F93CF93DF930CE4C8
:100D900011E08FE1C82E81E0D82E1801EE24E394F3
:100DA000F12C66246394D1018D909D901D011E92BB
:100DB0001E92E60189916E01E82FE295EF70F0E056
:100DC00091A18F70970101C0220F8A95EAF7892FB0
:100DD000822B81A382A1722E7094872182A3D0EAF4
:100DE000DA95F1F763E171E090E080E0EB01599072
:100DF000BE01452D42954F7050E0EA0148A0AD90EC
:100E0000BC901197552D5F70E70102C0CC0FDD1F1C
:100E10005A95E2F7AE01442109F059C0A701082E06
:100E200002C0440F551F0A94E2F74A295B29119624
:100E30005C934E9301968C309105C1F681A1782286
:100E400071A282A1282B22A38D919C9188169906CC
:100E500041F0609264010E94A61390936601809312
:100E60006501D8E52D16D1E03D0609F09CCF8091B3
:100E700064018823B1F080916501909166010E9420
:100E8000B213069770F0E8E5F1E0D8018D919D91DD
:100E90008D0181939193B1E008351B07B1F7109252
:100EA00064010E94040481E0DF91CF911F910F91B2
:100EB000FF90EF90DF90CF90BF90AF909F908F907A
:100EC0007F906F905F904F903F902F90089550E0EB
:100ED00040E0ABCFE82FF0E0EE0FFF1FE85AFE4FE7
:100EE000808191810895089590936C0180936B01A6
:100EF0000895E0916B01F0916C01309721F0019021
:100F0000F081E02D099480E00895E0916B01F0916B
:100F10006C01309721F00280F381E02D099408954F
:100F2000E0916B01F0916C01309721F00480F58124
:100F3000E02D099408952091690130916A012817E4
:100F4000390771F090936A0180936901E0916B0118
:100F5000F0916C01309721F00680F781E02D099423
:100F6000089520916701309168012817390771F0C1
:100F70009093680180936701E0916B01F0916C019F
:100F8000309721F00084F185E02D099408950895AB
:100F90000C94C7070E949D130E946A060C946C145F
:100FA0005F926F927F928F929F92AF92BF92CF92F9
:100FB000DF92EF92FF920F931F93CF93DF93CDB702
:100FC000DEB72A970FB6F894DEBF0FBECDBF0E94E2
:100FD000B5069EE6A92E91E0B92E10E000E0882427
:100FE0008394912C502E802F0E946A077C01F5017A
:100FF000C190D1905F01C816D90609F45EC08091F6
:101000000D0281FD0E94730790E080E0CE24DF2472
:101010003401082E02C0660C771C0A94E2F7960190
:1010200026213721232B09F443C08E835F82E620DB
:10103000F72081E0EF2809F480E088870E94A6135A
:101040008160782F9A8789874E815F8168858A853C
:101050000E948A08000F111FF801E259FE4F80819B
:10106000918168267926718260820E94EA160E9428
:10107000790790916D018917B9F10E9479078093E2
:101080006D012A960FB6F894DEBF0FBECDBFDF917B
:10109000CF911F910F91FF90EF90DF90CF90BF9075
:1010A000AF909F908F907F906F905F900C9408040A
:1010B00001968C30910509F0ABCF0F5F1F4F0630C2
:1010C000110509F08FCF8FEF89838A831B820E94DD
:1010D000A6138160782F9D838C8349815A816B810F
:1010E0008D810E948A08C1CF2A960FB6F894DEBF80
:1010F0000FBECDBFDF91CF911F910F91FF90EF9069
:10110000DF90CF90BF90AF909F908F907F906F9027
:101110005F900895CF93DF93CDB7DEB72B970FB6CF
:10112000F894DEBF0FBECDBF4F83588769877A879B
:101130008B871E821D8285E0FE013796DE011196A7
:1011400001900D928A95E1F749815A816B817C81EA
:101150008D819E812B960FB6F894DEBF0FBECDBF5A
:10116000DF91CF910C94B90E882309F4D8C082384E
:1011700071F40E94790781FDD2C089E30E94F911C0
:101180000E94BE1289E30E9436120C94BE1283386C
:1011900059F40E94790780FDC2C083E50E94F911CD
:1011A0000E94BE1283E5EFCF843859F40E9479077C
:1011B00082FDB5C087E40E94F9110E94BE1287E447
:1011C000E2CF9CEF980F913A18F40E94F911DDCF0D
:1011D00090E2980F983050F4877091E001C0990F19
:1011E0008A95EAF7892F0E947812CFCF9BE5980F56
:1011F000933070F4853A31F0863A39F083E890E024
:101200000C949B0781E890E0FBCF82E890E0F8CF58
:1012100098E5980F953108F082C0883A09F440C0EB
:10122000893A09F440C08A3A09F440C08B3A09F47B
:1012300040C08C3A09F440C08B3B09F440C08C3B61
:1012400009F440C08D3A09F440C0803B09F440C025
:101250008E3A09F440C08F3A09F440C0813B09F44A
:1012600040C0823B09F440C0833B09F440C0843B4A
:1012700009F440C0853B09F440C0863B09F440C0F6
:10128000873B09F440C0883B09F440C0893B09F41E
:1012900040C08A3B09F440C090E080E00C94B10764
:1012A00082EE90E0FBCF89EE90E0F8CF8AEE90E0FE
:1012B000F5CF85EB90E0F2CF86EB90E0EFCF83EBBC
:1012C00090E0ECCF84EB90E0E9CF87EB90E0E6CFC5
:1012D0008CEC90E0E3CF8DEC90E0E0CF83E891E000
:1012E000DDCF8AE891E0DACF82E991E0D7CF84E9D7
:1012F00091E0D4CF81E292E0D1CF83E292E0CECFF1
:1013000084E292E0CBCF85E292E0C8CF86E292E021
:10131000C5CF87E292E0C2CF8AE292E0BFCF0895C4
:10132000882309F44BC0823871F40E94790781FF49
:1013300045C089E30E94F9110E94BE1289E30E9410
:1013400036120C94BE12833859F40E94790780FF3C
:1013500035C083E50E94F9110E94BE1283E5EFCFEC
:10136000843859F40E94790782FF28C087E40E94DC
:10137000F9110E94BE1287E4E2CF9CEF980F913AD8
:10138000F0F290E2980F983050F4877091E001C02D
:10139000990F8A95EAF7892F0E947E12D2CF9BE59A
:1013A000980F933020F490E080E00C949B07885ACB
:1013B000853120F490E080E00C94B10708958823F3
:1013C00021F00E9478120C94BE120895882321F017
:1013D0000E947E120C94BE1208958F929F92AF923B
:1013E000BF92DF92EF92FF920F931F93CF93DF9301
:1013F0007C01D62FC72FFC01058102950F70128149
:1014000011110E9495120E94F211D82E882371F0BA
:101410001123A1F080E28D0F883080F082E00E94DD
:10142000DC110E94F21191E0D82ED926EC2FE29522
:10143000EF70F0E0E55DFF4D0C94C71FD12CF6CFA7
:101440000C2F0F70C07F11F00295007F1123A9F0BF
:10145000002359F080E28D0F883010F0D11109C0BF
:10146000802F0E9478120E94BE128D2F0E94B40815
:1014700014C0802F0E948812F6CF8D2F0E949009F1
:10148000002359F080E28D0F883010F0D11124C074
:10149000802F0E947E120E94BE12DD2009F48FC1AF
:1014A0000E94CF1180FD8BC1F70112820E94C911E9
:1014B0000E944910C7010E94EB0B0E94C911DF91E5
:1014C000CF911F910F91FF90EF90DF90BF90AF9061
:1014D0009F908F900C946A10802F0E948E12DBCF09
:1014E000FC2FFF70BF2EC07FC03219F0B29480EF86
:1014F000B822DD2369F0D13029F1112369F10023ED
:1015000059F0F701858180FFB0CF8F70858304C0CB
:10151000112361F0011104C08B2D0E94DF09BDCFA2
:101520008B2D0130D1F70E94A812B7CF011106C050
:101530000E94AB128B2D0E94E609AFCF013009F457
:10154000ACCFF6CF112321F0063008F0A6CFE4CFC0
:10155000053008F0A2CFEECF002361F38D2F0E945B
:1015600090099BCF8C2F86958695837069F081308A
:1015700009F093CF8D2F9C2F9370111102C090E032
:1015800080E00E94B10789CF8D2F9C2F937011119D
:1015900002C090E080E00E949B077FCF8D2F112337
:1015A00029F00E94F8150E94DF1677CF0E9460167E
:1015B000FACF8C2F837009F047C011116ECF2D2FF9
:1015C000229526952770220F220F6D2F6F70862E81
:1015D000912CB12CA12C022E04C0880C991CAA1CA1
:1015E000BB1C0A94D2F760E070E0CB01D4FF0FC0BF
:1015F0006FE070E080E090E004C0660F771F881F06
:10160000991F2A95D2F76095709580959095C6950B
:10161000C695C370C23051F080F4682979298A29AF
:101620009B29C13071F00E94F20F37CF68297929C8
:101630008A299B290E940E1030CF0E94F20FC5010B
:10164000B4010E94D60F29CF8695112311F08C2F5B
:101650008170882309F421CF2D2F2295269527709C
:10166000220F220F6D2F6F70862E912CB12CA12C82
:10167000022E04C0880C991CAA1CBB1C0A94D2F729
:1016800060E070E0CB01D4FF0FC06FE070E080E05D
:1016900090E004C0660F771F881F991F2A95D2F724
:1016A0006095709580959095C695C695C370C2302B
:1016B00051F080F4682979298A299B29C13071F079
:1016C0000E94CC10EACE682979298A299B290E9498
:1016D000E810E3CE0E94CC10C501B4010E94B01006
:1016E000DCCEE0E2ED0FE53108F04DC0F0E0E55C66
:1016F000FF4D0C94C71FDF708C2F8F71112321F0C9
:101700000E9449108D2F09CF0E946A108D2F13CF90
:10171000112341F0053008F0C0CE8C2F8F710E944C
:101720008F10BBCE063008F0B8CEF7CF8C2F8F715C
:10173000112339F00E944910B0CE8C2F8F711123E4
:10174000C9F30E946A10A9CE112329F08C2F8F7142
:101750000E943410A2CE0E942A109FCE112349F07D
:10176000CF718C2F0E94491063E08C2F0E94D311FF
:1017700094CE81E00E94DC11023008F48ECE82E02B
:101780000E94DC118ACE112329F001116ECE8C2F1C
:101790008F71D0CF0111E2CE8C2F8F71D2CF4C2F11
:1017A0004F706D2FC7010E9487020E94530F75CEA4
:1017B0004C2F4F706D2FC7010E940A046ECEDF912F
:1017C000CF911F910F91FF90EF90DF90BF90AF905E
:1017D0009F908F9008950F931F93CF93DF93EC0109
:1017E0008B819C81892B29F08881998189238F3F66
:1017F00029F4DF91CF911F910F910895CE010E949E
:10180000AB028823B1F3688179818A810E94A51196
:101810008C010E9404110E94CB0FB801CE01DF9110
:10182000CF911F910F910C94ED090E9495120E9487
:10183000A5120E946A120E94BE120E948B170E947B
:10184000DF1690E080E00E949B0790E080E00C941F
:10185000B1070E9485120C94150C0E949B11E92F70
:10186000E295EF70E250EE3070F4F0E0E05BFF4D97
:101870000C94C71F803F19F020F4803E20F481E0D3
:101880000895843FE1F380E00895803EC0F3813FF6
:10189000D1F7F5CF93FB882780F90895CF93DF9395
:1018A00000D000D00F92CDB7DEB70F900F900F9001
:1018B0000F900F90DF91CF910895CF93DF9300D0D9
:1018C00000D000D0CDB7DEB726960FB6F894DEBFB5
:1018D0000FBECDBFDF91CF9108951F93CF93DF93BC
:1018E000C0917B0116E080917C018C1304C0DF91D4
:1018F000CF911F910895D0E01C9FF0011D9FF00D26
:101900001124E358FE4F40815181628173818481AB
:1019100095810E945D0C2196C770E5CF4091AD0185
:101920005091AE016091AF017091B0018091B10111
:101930009091B2010C945D0C1F93CF93DF93809133
:10194000B201807FC1F48091AF018823A1F0809122
:101950007B01C0917C016091AD017091AE0140911D
:10196000B0015091B101D62FD723DA01A095B095DF
:1019700016E0C81304C0DF91CF911F91089590E045
:101980004115510511F0DF3F31F401968770F1CF19
:101990002A0F3B1F17C0189FF001199FF00D11244B
:1019A000E358FE4F21812713F0CF20812613EDCF7E
:1019B00022812111EACF238134812417350740F396
:1019C000241B350B283C310500F72091B2012F7004
:1019D00020612093B20126E0289FF001299FF00D9D
:1019E0001124EE57FE4F80818F70806180838DEAD5
:1019F00091E00E94EB0BDF91CF911F910C946D0C45
:101A0000BF92CF92DF92EF92FF920F931F93CF93EB
:101A1000DF93CDB7DEB761970FB6F894DEBF0FBE88
:101A2000CDBF8C0185E0F801DE011D9601900D927D
:101A30008A95E1F7D8014C9111965C911197129615
:101A4000EC9012978091B0019091B101009709F448
:101A50007FC12091AD013091AE01622F63236F3FB2
:101A600009F476C11396CD90DC90B090AF01BB2005
:101A700009F413C1C816D906D0F1F601E81BF90B19
:101A8000CF01FF24F394883C910508F0F12C80915C
:101A9000B201982F907FFF2009F4B6C091117FC04A
:101AA000FE2C351329C0241327C0E11025C08F70E8
:101AB00080618093B2010E948E0C8DEA91E00E94B9
:101AC000EB0B8091B201D80115968C938F2D619606
:101AD0000FB6F894DEBF0FBECDBFDF91CF911F913F
:101AE0000F91FF90EF90DF90CF90BF900895809579
:101AF00090958C0D9D1DC5CFCD2829F0852F842371
:101B00008F3F09F033C180E0B82FB170DB2E80FF2A
:101B10003CC080917B0120917C0136E0821315C08E
:101B20004D875E878D859E850E949B11292F22956A
:101B30002F702230F0F0243018F59F70F1F0F8018A
:101B40009581907FD1F4D12C1EC090E0389FF00198
:101B5000399FF00D1124E358FE4F6181651306C0D3
:101B60006081641303C06281E6120FC00196877022
:101B7000D5CF9F7011F0882331F3805E883018F341
:101B8000C8010E94EB0BFD2CA1CFEE2009F49ECFE3
:101B90008091B20181608093B201F12C97CF35130F
:101BA00006C0241304C0D801EE2009F49CC04D8760
:101BB0005E878D859E850E942D0C882309F4D2C0F6
:101BC000EE2009F4CFC08091B201803270F02091F4
:101BD000AD013091AE0138872F831986DB86CA8626
:101BE0008C87CE0107960E94EB0B86E0F801ADEAE8
:101BF000B1E001900D928A95E1F70E949C0C0E9441
:101C00008E0CFF24F39462CF911115C07C2DD98ADC
:101C1000C88A6E2D89890E944E0C8DEA91E00E943F
:101C2000EB0B86E0EDEAF1E0DF011D928A95E9F722
:101C30000E948E0C4BCF351312C0241310C0E1103C
:101C40000EC0F8018583C8010E94EB0BEDEAF1E0BC
:101C500086E0DF011D928A95E9F7FB2C37CF4D878F
:101C60005E878D859E850E942D0C882309F47AC09D
:101C7000EE2009F477C08091B201803208F4B5CF2C
:101C80002091AD013091AE013A8329831B82DD8220
:101C9000CC828E83CE010196A6CFC816D90688F1D4
:101CA000F601E81BF90BCF01F12C883C910508F0F7
:101CB00047C0FE2CEE2009F455C0351330C0241364
:101CC0002EC08091B20180FD21C0982F907FF1F04D
:101CD000D80115968C931597903F39F0982F907FE7
:101CE000905F8F70892B15968C93C8010E94EB0B27
:101CF00086E0F801ADEAB1E001900D928A95E1F736
:101D000097CF809590958C0D9D1DCECF86E0F801E4
:101D1000ADEAB1E001900D928A95E1F7D7CE4D87FB
:101D20005E878D859E850E942D0C81115ECF8091EE
:101D3000B20181608093B201C8010E94EB0BC6CE54
:101D40007C2DD98AC88A6E2D89890E944E0C69CF54
:101D5000EE2041F04D875E878D859E850E942D0C7B
:101D6000811143CFC8010E94EB0B4BCF81E08E2540
:101D7000CBCE1F93CF93DF93CDB7DEB72C970FB6A3
:101D8000F894DEBF0FBECDBF4F83588769877A872F
:101D90008B879C87CE0107960E94000D882369F0EF
:101DA0008A859B85892B39F04F815885842F85231F
:101DB0008F3F09F071C016E05FC086E0FE013796E4
:101DC000DE01119601900D928A95E1F78A859B8537
:101DD000892B89F388859F8189238F3F61F3209127
:101DE0007C0130E0C90101968770992740917B0101
:101DF0004817190671F40E94290C10927C01109268
:101E00007B0186E0EDEAF1E0DF011D928A95E9F7BA
:101E1000D2CF96E0929FD001939FB00D1124A3588A
:101E2000BE4FFE01319601900D929A95E1F7809395
:101E30007C010E946D0CBFCF819FC001112483588B
:101E40009E4F0E94000D8823E9F0E0917B011E9FC8
:101E5000F0011124E358FE4F40815181628173816A
:101E6000848195810E945D0C80917B0190E00196B8
:101E70008770992780937B0180917B0190917C01F1
:101E80008913DACF2C960FB6F894DEBF0FBECDBF04
:101E9000DF91CF911F91089569857A858B859C8507
:101EA0000E945D0C88CFEF92FF920F931F93CF9308
:101EB000DF938C01892B81F0F12CEE24E394E8016F
:101EC0002196F8018491843770F4843008F05FC063
:101ED0008130B1F08230A1F1DF91CF911F910F914C
:101EE000FF90EF900895853709F44CC008F43DC089
:101EF0009CE7980F903780F78F770E94900949C030
:101F00000E5F1F4FFE01849190E2980F983060F4AD
:101F10008770FE2D01C0FF0F8A95EAF78F2F0E9470
:101F200098120E94BE1202C00E94B4088F2D8150E8
:101F300030F2EFE9FFE03197F1F700C00000F7CF92
:101F40000E5F1F4FFE01849190E2980F983050F47D
:101F50008770FE2D01C0FF0F8A95EAF78F2F0E9430
:101F60009E12DFCF0E949009E1CF0E5F1F4FFE014E
:101F7000C491C150D8F28FE99FE00197F1F700C0FA
:101F80000000F7CF0E5F1F4FFE01F490CFCF0E94ED
:101F9000B4088E01CBCF08956093E4017093E501FE
:101FA0008093E6019093E7010C94150C0F931F9317
:101FB0000091E4011091E5012091E6013091E701E3
:101FC000DC01CB01802B912BA22BB32B8093E4015E
:101FD0009093E501A093E601B093E7011F910F9163
:101FE0000C94150C0F931F930091E4011091E501DF
:101FF0002091E6013091E701DC01CB0180239123A0
:10200000A223B3238093E4019093E501A093E6011A
:10201000B093E7011F910F910C94150C0F931F9330
:102020000091E4011091E5012091E6013091E70172
:10203000DC01CB0180279127A227B3278093E401FD
:102040009093E501A093E601B093E7011F910F91F2
:102050000C94150C1092E0011092E1011092E20133
:102060001092E3010C94150C41E050E060E070E048
:1020700004C0440F551F661F771F8A95D2F74093FF
:10208000E0015093E1016093E2017093E3010C944D
:10209000150C41E050E060E070E004C0440F551FB3
:1020A000661F771F8A95D2F78091E0019091E10138
:1020B000A091E201B091E301842B952BA62BB72BC5
:1020C0008093E0019093E101A093E201B093E301DA
:1020D0000C94150C41E050E060E070E004C0440F47
:1020E000551F661F771F8A95D2F7409550956095CA
:1020F00070958091E0019091E101A091E201B09191
:10210000E30184239523A623B7238093E0019093D2
:10211000E101A093E201B093E3010C94150C41E0BE
:1021200050E060E070E004C0440F551F661F771F49
:102130008A95D2F78091E0019091E101A091E201AE
:10214000B091E30184279527A627B7278093E00164
:102150009093E101A093E201B093E3010C94150C7C
:102160000F931F930091E0011091E1012091E20192
:102170003091E301DC01CB01802B912BA22BB32BFF
:102180008093E0019093E101A093E201B093E30119
:102190001F910F910C94150C0F931F930091E00168
:1021A0001091E1012091E2013091E301DC01CB01CA
:1021B00080239123A223B3238093E0019093E10134
:1021C000A093E201B093E3011F910F910C94150CC1
:1021D0000F931F930091E0011091E1012091E20122
:1021E0003091E301DC01CB0180279127A227B3279F
:1021F0008093E0019093E101A093E201B093E301A9
:102200001F910F910C94150C08952CE0929F800D56
:102210001124982F977041E001C0440F9A95EAF776
:1022200086958695869595E0899FF0011124ED5459
:10223000FE4F90E080E070E05191DF0111979B012B
:10224000082E02C0369527950A94E2F72170219551
:102250002527242325272C9301968530910561F7A6
:1022600008952CE0929F800D1124982F97708695E9
:102270008695869525E0829FF0011124ED54FE4F4E
:1022800050E040E080E0219130E0092E02C0369518
:1022900027950A94E2F721703327042E01C0220FFC
:1022A0000A94EAF7822B4F5F5F4F4530510559F78B
:1022B0000895BF92CF92DF92EF92FF920F931F93F8
:1022C000CF93DF938C01C090E001D090E101E090CA
:1022D000E201F090E3018091E4019091E501A09189
:1022E000E601B091E701C82AD92AEA2AFB2ACFE100
:1022F000D0E0BC2ED701C6010C2E04C0B695A79520
:10230000979587950A94D2F780FD0EC0219788F79C
:10231000B12C8B2DDF91CF911F910F91FF90EF90FA
:10232000DF90CF90BF900895B8018C2F0E942704B2
:10233000019761F3EECFCF93DF93EC010E94591127
:10234000BE01DF91CF910C9427041F93CF93DF93AD
:10235000EB0190917A01992331F0CB01DF91CF917C
:102360001F910C949B11882379F0CB010E94591185
:10237000182F682FCE010E940511BE01812FDF9119
:10238000CF911F910C942704CB010E943111182F7B
:10239000F4CF8091E8018595859585950895809184
:1023A000E8018770089598E0899F90011124622BBD
:1023B0006093E8010C9449109091E801809589237D
:1023C0008093E801282F277061F4282F082E000C35
:1023D000330B9217130629F08595859585950C94F6
:1023E0006A1008959091E801977081E009F480E007
:1023F0000895909112019923E1F090913E0297FF88
:1024000018C0E82FE695E695E695EF3139F1209171
:10241000000130910101E20FF32FF11D877021E0DF
:1024200030E001C0220F8A95EAF78181822B8183F7
:1024300008952091000130910101F90132969FEF3A
:1024400040E05191851751F09F3F19F4511101C09F
:10245000942F4F5F4E31A9F79F3F09F40895290F3C
:10246000311D97FD3A95F9018283089590911201EB
:102470009923F1F090913E0297FF1AC0E82FE6955C
:10248000E695E695EF3129F12091000130910101A7
:10249000E20FF32FF11D282F277081E090E001C09B
:1024A000880F2A95EAF78095918189238183089581
:1024B0002091000130910101F9013296205E3F4FD9
:1024C0009191891303C0DF0111971C92E217F30762
:1024D000B9F7089581E090E0E0910001F0910101E9
:1024E000E80FF91F1082019680329105A9F708952F
:1024F00090910C02892B80930C0208958095909105
:102500000C02982390930C02089510920C020895E7
:1025100090910B02892B80930B02089580959091E6
:102520000B02982390930B02089510920B020895CA
:1025300090910A02892B80930A02089580959091C8
:102540000A02982390930A02089510920A020895AD
:102550008093E90108951092E90108952091000106
:1025600030910101F9013196205E3F4F80E0919159
:1025700091118F5FE217F307D1F70895E091000101
:10258000F091010180910C028083E0910001F091B3
:102590000101808190910B02892B8083E0910001E1
:1025A000F0910101808190910A02892B80839091A2
:1025B000E901992361F0E0910001F091010180812E
:1025C000892B80830E94AE1281111092E9018091C3
:1025D0000001909101010C9485076DEE7EEF90E073
:1025E00080E00E94012060E082E090E00E94EF1F06
:1025F00060E083E090E00E94EF1F60E084E090E004
:102600000E94EF1F60E085E090E00C94EF1F90E0E7
:1026100080E00E94E91F21E08D3E9E4F09F020E0FE
:10262000822F089582E090E00C94E11F682F82E0F1
:1026300090E00C94EF1F83E090E00C94E11F682F72
:1026400083E090E00C94EF1F84E090E00C94E11F95
:10265000682F84E090E00C94EF1F80914402843056
:1026600039F110920E0288E190E020E40FB6F89460
:10267000A895809360000FBE2093600080E00E94C8
:10268000080483B7817F846083BF83B7816083BF81
:102690007894889583B78E7F83BF0FB6F894A895FA
:1026A00080916000886180936000109260000FBE8E
:1026B000089508950895CF930E9459130E94B50676
:1026C0000E945A13C0E08C2F0E946A07892B31F4B4
:1026D000CF5FC630C1F780E0CF91089581E0FCCF95
:1026E0000E94290C0E9479070C9408041F921FB6BF
:1026F0001F9211248F939F93AF93BF9380910E02EB
:10270000811113C080913A0290913B02A0913C024A
:10271000B0913D024196A11DB11D80933A02909364
:102720003B02A0933C02B0933D02BF91AF919F91B9
:102730008F911F901FBE1F90189582E084BD93E07B
:1027400095BD9AEF97BD80936E0008952FB7F894CA
:1027500080913A0290913B02A0913C02B0913D02DF
:102760002FBF0895CF92DF92EF92FF920F931F93A6
:102770002FB7F89440913A0250913B0260913C028D
:1027800070913D022FBF6A017B01EE24FF248C0172
:1027900030E020E0C016D106E206F30650F0481BF8
:1027A000590BCA011F910F91FF90EF90DF90CF90CE
:1027B000089541505109F3CF1F921FB61F92112463
:1027C0008F939F93AF93BF9380913A0290913B0276
:1027D000A0913C02B0913D020196A11DB11D8093D4
:1027E0003A0290933B02A0933C02B0933D02BF910A
:1027F000AF919F918F911F901FBE1F9018950E94BF
:10280000871BF8942FEF87EA91E621508040904093
:10281000E1F700C0000087E090EBDC0180934D02FF
:1028200090934E02A0934F02B093500288E19CE037
:102830000FB6F894A895809360000FBE9093600047
:10284000FFCFAF92BF92CF92DF92EF92FF920F93A2
:102850001F93CF93C0E0CC24C394D12CE82EF12C4D
:102860008C2F0E946A075C0110E000E0C601002E78
:1028700002C0880F991F0A94E2F78A219B21892BB5
:1028800099F40F5F1F4F0C30110581F7CF5FC630F1
:1028900039F780E0CF911F910F91FF90EF90DF907B
:1028A000CF90BF90AF900895602F7C2F80E00E9462
:1028B0000B04E816F90629F781E0ECCFCF93C82F77
:1028C0008CE20E942114882321F08C2FCF910C944C
:1028D000211480E0CF910895CF930E9407138111B6
:1028E00002C00E94ED12C5E608C00E94B5068FE343
:1028F0009CE90197F1F700C00000C150B1F789E2EF
:102900000E945E148111EFC08AE20E945E14811160
:102910000E94ED1285E00E945E1481110E94FF1357
:102920000E94121380930D0287E00E945E14882398
:1029300071F08BE10E945E14882309F4B1C090917C
:102940000D02892F8D7F91FF826080930D0280910F
:102950000D020E9416130E94241390E090933F02F0
:1029600080933E0280EE0E945E14882341F0909195
:102970003E02892F8E7F90FF816080933E0289E323
:102980000E945E14882341F090913E02892F8D7F32
:1029900091FF826080933E0282EE0E945E14882343
:1029A00041F090913E02892F8B7F92FF846080934B
:1029B0003E0286EE0E945E14882341F090913E0212
:1029C000892F877F93FF886080933E0283EE0E9469
:1029D0005E14882341F090913E02892F8F7E94FFF0
:1029E000806180933E0285E30E945E14882341F05B
:1029F00090913E02892F8F7D95FF806280933E02E9
:102A000081E30E945E14882341F090913E02892F59
:102A10008F7B96FF806480933E0281E10E945E146A
:102A2000882341F090913E02892F97FB87F98058C7
:102A300080933E0280913E020E94281387E20E940A
:102A40005E14C82F8EE10E945E148111C2608FE176
:102A50000E945E148111C46080E20E945E148111A4
:102A6000C86081E20E945E148111C06182E20E940E
:102A70005E148111C06283E20E945E148111C06401
:102A800084E20E945E14882341F1C0688C2F0E946A
:102A90001F136C2F70E090E080E0CF910C94CC0F6E
:102AA0008EE00E945E14882339F090910D02892FE8
:102AB0008B7F92FF846049CF80E10E945E149091E9
:102AC0000D02882329F0892F877F93FF88603DCFEF
:102AD000892F8E7F90FF816038CFC111D7CF0E94A0
:102AE0001B13682FD7CFCF9108958091110280FFDB
:102AF00012C06091050185E0689FB00111247595B1
:102B000067957595679560387105A8F5611571052C
:102B1000A1F1862F089581FF09C06091050185E02C
:102B2000689FB001112475956795EDCF60910501FF
:102B300082FD0AC0809112028823D1F09091040195
:102B400060910501891728F085E0689FB001112484
:102B5000DACF869FB001112485E0869F9001879F80
:102B6000300D1124692F70E0C9010E94B31FCBCF33
:102B700065E070E0CECF8FE7089581E00895809101
:102B8000110280FF0CC06091030170E0759567959C
:102B9000759567956115710549F1862F089581FF37
:102BA00006C06091030170E075956795F3CF609161
:102BB000030182FD0BC0909112029923A1F0609154
:102BC000020180910301961738F0682F70E0603899
:102BD000710500F38FE70895899FC001112470E00B
:102BE0000E94B31FF4CF61E070E0D7CF81E0089579
:102BF000803F31F40E9475158195809315020895E8
:102C0000813F19F40E947515F8CF823F31F40E947C
:102C100075158195809314020895833F19F40E94DD
:102C20007515F8CF893F29F40E94BF1580931602CD
:102C300008958A3F21F40E94BF158195F7CF8B3FFD
:102C400031F40E94BF1581958093170208958C3F3F
:102C500019F40E94BF15F8CF843F31F4809113021C
:102C60008160809313020895853F21F480911302BF
:102C70008260F7CF863F21F4809113028460F1CF08
:102C8000873F21F4809113028860EBCF883F21F4C5
:102C9000809113028061E5CF8D3F31F48091110264
:102CA00081608093110208958E3F21F4809111027A
:102CB0008260F7CF8F3FB9F7809111028460F1CF26
:102CC00090911402803F41F48091150287FD10928B
:102CD0001502992371F00895813F29F4809115021E
:102CE0001816ACF3F6CF823F81F497FFF2CF109223
:102CF00014028091150290911602892B909117026F
:102D0000892B49F7109212020895833F19F419167E
:102D100074F3DFCF893F39F4809116021816CCF690
:102D200010921602D6CF8A3F29F48091160287FFAF
:102D3000D0CFF6CF8B3F39F48091170287FFC9CFF0
:102D400010921702C6CF8C3F29F4809117021816F3
:102D5000BCF3BFCF843F31F4809113028E7F809308
:102D60001302B7CF853F21F4809113028D7FF7CFF7
:102D7000863F21F4809113028B7FF1CF873F21F4AE
:102D800080911302877FEBCF883F21F4809113025B
:102D90008F7EE5CF8D3F31F4809111028E7F80933D
:102DA000110297CF8E3F21F4809111028D7FF7CFD2
:102DB0008F3F09F08ECF809111028B7FF0CF83E19E
:102DC00092E00E9490070E94A613909310028093B5
:102DD0000F0208951F93CF93DF9380910F0290917C
:102DE00010020E94B213AC019091120220910601D0
:102DF00030E0911106C0209107018AE0289F9001E0
:102E000011244217530778F020911402C091150243
:102E1000D091160210911702211109C08C2F8D2B11
:102E2000812B09F074C0DF91CF911F9108959F3FCE
:102E300019F09F5F90931202121624F40E947515E8
:102E4000809314028091140287FF05C00E947515BB
:102E50008195809314021C1624F40E9475158093AA
:102E600015028091150287FF05C00E947515819596
:102E70008093150260911402662331F1C09115020E
:102E8000CC2311F1062E000C770B880B990B0E94B6
:102E9000BA1E23E333E343E35FE30E941E1F0E9455
:102EA000821E609314026C2FCC0F770B880B990B4A
:102EB0000E94BA1E23E333E343E35FE30E941E1F35
:102EC0000E94821E609315021D1624F40E94BF15F5
:102ED000809316028091160287FF05C00E94BF15DD
:102EE000819580931602111624F40E94BF158093D9
:102EF00017028091170287FF05C00E94BF158195B8
:102F000080931702DF91CF911F910C94DF169F3FA2
:102F100009F08FCFA0CF85E0E3E1F2E0DF011D9261
:102F20008A95E9F710921202109211020895809189
:102F300038020895CF93DF9300D00F92CDB7DEB75C
:102F40009C0180914402843019F593E099833B837E
:102F50002A839093E9008FEF9091E800815095FDCE
:102F600006C095ED9A95F1F700008111F5CF80919B
:102F7000E80085FF0DC050E040E063E070E0CE0166
:102F800001960E94F7198091E8008E778093E800FF
:102F90000F900F900F90DF91CF910895CF93DF9313
:102FA00000D00F92CDB7DEB720914402243031F526
:102FB00022E02983805891099B838A8383E0809350
:102FC000E9008FEF9091E800815095FD06C095EDE6
:102FD0009A95F1F700008111F5CF8091E80085FF07
:102FE0000DC050E040E063E070E0CE0101960E9429
:102FF000F7198091E8008E778093E8000F900F908A
:103000000F90DF91CF9108959C018091440284300C
:10301000F9F482E08093E9009FEF8091E8009150FD
:1030200085FD06C085ED8A95F1F700009111F5CF79
:103030008091E80085FF0CC050E040E065E070E062
:10304000C9010E94F7198091E8008E778093E8000B
:103050000895CF93DF93EC01809144028430F1F422
:10306000909112019923E9F090913E0297FF19C0C7
:103070008093E9008FEF9091E800815095FD06C0A4
:1030800095E19A95F1F700008111F5CF8091E80064
:1030900050E040E060E270E085FD1AC0DF91CF9122
:1030A000089581E08093E9008FEF9091E8008150CE
:1030B00095FD06C095ED9A95F1F700008111F5CFC9
:1030C0008091E80085FFEACF50E040E068E070E0E2
:1030D000CE010E94F7198091E8008E778093E80076
:1030E00080E2FE01A8E1B2E001900D928A95E1F73D
:1030F000D5CF80914302811109C00E94871B0E9495
:10310000E41B8091E20084608093E20008951092B5
:1031100043020895089508950C94701342E061EC01
:1031200081E00E94031B42E061EC82E00E94031BED
:1031300042E061EC83E00E94031B42E261EC84E028
:103140000C94031B80914602833009F455C030F47F
:10315000813071F1823009F491C008958A3009F408
:103160007DC08B3009F463C0893009F044C0809180
:103170004502813209F03FC08091490290914A0294
:10318000009711F00397B9F58091E800877F80934D
:10319000E8008091E80082FF2AC08091F1008093CE
:1031A00038028091E8008B778093E8000C94371BFD
:1031B00080914502813AF9F48091E800877F8093FD
:1031C000E8008091490290914A02892B61F460E203
:1031D00088E192E070E00E94461A8091E8008B77C7
:1031E0008093E800089560E090E080E0F3CF809164
:1031F00044028111CECF089580914502813AD9F7DA
:103200008091490290914A02892BA9F78091E800A8
:10321000877F8093E8008091E80080FFFCCF809159
:1032200012018093F1008091E8008E77BDCF8091EC
:103230004502813201F78091490290914A02892B1F
:10324000D1F68091E800877F8093E8000E94371BC9
:1032500080914702809312010C94290C80914502C1
:10326000813249F68091E800877F8093E8000E94D0
:10327000371B80914802809339020895809145025E
:10328000813A09F0B8CF8091E800877F8093E80009
:103290008091E80080FFFCCF80913902C2CF84B7D3
:1032A000877F84BF0FB6F894A895809160008861ED
:1032B00080936000109260000FBE80E880936100F0
:1032C000109261000E94C8070E94871B0E94E41BA5
:1032D0008091E20084608093E20078940E94671EEF
:1032E0000E94CA0788E091E00E947407809144021E
:1032F000853019F00E94D007F9CF0E942D138091DC
:103300004202882399F30E945B13882379F30E9479
:10331000E119ECCF292F33272330310521F168F44F
:103320002130310509F443C02230310509F444C08D
:1033300090E080E030E020E026C02132310551F1FC
:1033400022323105A9F7643098F770E0FB01EE0FE7
:10335000FF1FE75DFE4F208131816B5D7E4FFB01DA
:10336000808190E010C099278130910581F000970D
:1033700029F00297E9F6E2EDF2E002C0ECEFF2E0AC
:10338000849190E09F01FA01318320830895E4EE57
:10339000F2E0F6CF643060F6E62FF0E0EE0FFF1FAC
:1033A000EF5CFE4F2081318189E090E0ECCF82E13B
:1033B00090E02DE633E0E7CF8DE690E020E033E0CB
:1033C000E2CF80E189BD82E189BD09B400FEFDCF75
:1033D0008091D8008F7D8093D8008091E00082603A
:1033E0008093E0008091E00081FDFCCF0895AF92D2
:1033F000BF92CF92DF92FF920F931F93CF93DF93F1
:103400006C01EB018A010E94561BF82E811123C02A
:103410000115110539F0F80180819181C81BD90B84
:10342000C80ED91EB12CA12C2097A9F08091E800DC
:1034300085FD22C08091E8008E778093E800011519
:103440001105A1F0F80180819181A80EB91EB18209
:10345000A08285E0F82E8F2DDF91CF911F910F91E3
:10346000FF90DF90CF90BF90AF9008950E94561BC1
:103470008823D1F2F82EEFCFF60181916F0180936E
:10348000F1002197FFEFAF1ABF0ACECFFC01809168
:103490004B0290914C0286179707A0F061157105B9
:1034A00029F49091E8009E779093E80090E06115F0
:1034B000710551F4911108C08091E80082FF34C079
:1034C00080E00895BC01F2CF809144028823C1F1CD
:1034D0008530C1F18091E80083FD30C08091E80023
:1034E00082FDEACF8091E80080FFE1CF8091F30078
:1034F0002091F200382F6115710519F0283031053F
:1035000058F091E02830310509F090E02091E80072
:103510002E772093E800CBCF81918093F10061500A
:1035200071092F5F3F4FE7CF80914402882341F01C
:10353000853041F08091E80083FFBECF81E008959F
:1035400082E0089583E00895FC0180914B02909100
:103550004C0286179707A0F06115710529F4809138
:10356000E8008E778093E80090E06115710551F4D2
:10357000911108C08091E80082FF35C080E0089575
:10358000BC01F2CF809144028823C9F18530C9F192
:103590008091E80083FD31C08091E80082FDEACF90
:1035A0008091E80080FFE1CF8091F3002091F2004C
:1035B000382F6115710519F02830310558F091E068
:1035C0002830310509F090E08091E8008E778093F3
:1035D000E800CBCF84918093F1003196615071095E
:1035E0002F5F3F4FE6CF80914402882341F0853022
:1035F00041F08091E80083FFBDCF81E0089582E033
:10360000089583E00895982F973028F08F70809365
:10361000E90081E008959093E900242F762F50E08F
:10362000981731F07091EC002091ED005091F0006E
:1036300021FD02C09F5FE8CF3091EB003E7F3093C9
:10364000EB003091ED003D7F3093ED003091EB00C9
:1036500031603093EB007093EC002093ED005093B9
:10366000F0002091EE0027FDE5CF80E008958091E5
:10367000450287FF13C08091E80082FF06C0809159
:10368000E8008B778093E80004C0809144028111A8
:10369000F2CF0895809144028823D9F38091E80005
:1036A00080FFF8CF8091E8008E77ECCF2091E40086
:1036B0003091E50095E6A9012091EC00822F817000
:1036C00020FF06C08091E80080FF06C080E00895DA
:1036D0002091E80022FD1AC080914402882389F0DD
:1036E000853089F08091EB0085FD0FC02091E400CA
:1036F0003091E50042175307F9F29150E1F684E06A
:10370000089582E0089583E0089581E008950E947D
:10371000F51B0E94FD1BE0EEF0E08081816080835C
:10372000E8EDF0E080818F77808319BCA7EDB0E0F1
:103730008C918E7F8C9380818F7E80831092430248
:1037400008950F931F93CF93DF930E94F51B0E9460
:10375000FD1BC8EDD0E088818F77888388818068E1
:10376000888388818F7D888319BC109244021092CF
:103770004002109242021092410200EE10E0F80165
:1037800080818B7F808388818160888342E060E0D4
:1037900080E00E94031BE1EEF0E080818E7F808359
:1037A000E2EEF0E0808181608083808188608083A8
:1037B000F80180818E7F8083888180618883DF919A
:1037C000CF911F910F910895E8EDF0E080818F7EF9
:1037D0008083E7EDF0E080818160808384E082BFB8
:1037E00081E0809343020C94A11BE8EDF0E080811E
:1037F0008E7F80831092E20008951092DA0010927A
:10380000E10008951F920F920FB60F9211242F938B
:103810003F934F935F936F937F938F939F93AF9358
:10382000BF93EF93FF938091E10082FF0BC08091E3
:10383000E20082FF07C08091E1008B7F8093E1006E
:103840000E94661E8091DA0080FF19C08091D80026
:1038500080FF15C08091DA008E7F8093DA0080911E
:10386000D90080FF96C080E189BD82E189BD09B49D
:1038700000FEFDCF81E0809344020E947918809180
:10388000E10080FF19C08091E20080FF15C08091A7
:10389000E2008E7F8093E2008091E200806180935D
:1038A000E2008091D80080628093D80019BC85E046
:1038B000809344020E948B188091E10084FF2BC00A
:1038C0008091E20084FF27C080E189BD82E189BD4B
:1038D00089B5982F917080FFFBCF8091D8008F7DA4
:1038E0008093D8008091E1008F7E8093E1008091E9
:1038F000E2008F7E8093E2008091E20081608093FD
:10390000E20080914002882309F449C084E080935A
:1039100044020E948C188091E10083FF29C08091AD
:10392000E20083FF25C08091E100877F8093E10062
:1039300082E080934402109240028091E1008E7FE9
:103940008093E1008091E2008E7F8093E20080917D
:10395000E20080618093E20042E060E080E00E944B
:10396000031B8091F00088608093F0000E948A1809
:10397000FF91EF91BF91AF919F918F917F916F9147
:103980005F914F913F912F910F900FBE0F901F901D
:10399000189519BC109244020E94871870CF80912C
:1039A000E30087FD93E090934402B3CF1F920F9200
:1039B0000FB60F9211242F933F934F935F936F9302
:1039C0007F938F939F93AF93BF93CF93DF93EF93A7
:1039D000FF93D091E900DF708091EC00C82FC17097
:1039E00080FDC0E81092E9008091F000877F80930D
:1039F000F00078940E941A1D1092E9008091F00066
:103A000088608093F000CD2BCF70C093E900FF91C8
:103A1000EF91DF91CF91BF91AF919F918F917F9166
:103A20006F915F914F913F912F910F900FBE0F902B
:103A30001F9018951F93CF93DF93CDB7DEB7AA974A
:103A40000FB6F894DEBF0FBECDBF85E492E02091A3
:103A5000F100FC012193CF01F2E08D349F07B9F70B
:103A60000E94A2188091E80083FF82C080914502E5
:103A7000909146029A3008F07BC0E92FF0E0E25ABC
:103A8000FF4D0C94C71F803881F0823809F070C058
:103A9000809149028F708093E9008091EB0085FB53
:103AA000882780F91092E90006C080914102909128
:103AB0004202911182609091E800977F9093E80014
:103AC0008093F1001092F1008091E8008E77F9C0A8
:103AD000882309F4E6C0823009F04AC08091470289
:103AE0008111EAC0809149028F7009F441C080932E
:103AF000E9002091EB0020FFDFC0933031F480918A
:103B0000EB0080628093EB00D7C09091EB00906156
:103B10009093EB0021E030E001C0220F8A95EAF794
:103B20002093EA001092EA008091EB008860EACFCF
:103B300081111EC0109147021F778091E3008078A9
:103B4000812B8093E3008091E800877F8093E800D9
:103B50000E94371B8091E80080FFFCCF8091E3003A
:103B600080688093E30082E0111183E08093440237
:103B70008091E80083FF0AC08091E800877F8093EE
:103B8000E8008091EB0080628093EB00AA960FB66C
:103B9000F894DEBF0FBECDBFDF91CF911F91089586
:103BA0008058823028F780914702909148028C3DDE
:103BB00023E09207A1F583E08A838AE289834FB7E5
:103BC000F894DE01139620E03EE051E2E32FF0E0AE
:103BD00050935700E49120FF03C0E295EF703F5FE0
:103BE000EF708E2F90E0EA30C0F0C7968D939D93D2
:103BF0002F5F243159F74FBF8091E800877F809372
:103C0000E8006AE270E0CE0101960E94461A8091B7
:103C1000E8008B778093E800ABCFC096E7CFAE018A
:103C20004F5F5F4F609149020E948A19BC01892B46
:103C300009F49ECF9091E800977F9093E8008981E6
:103C40009A810E94A41AE3CF803809F091CF809125
:103C5000E800877F8093E800809140028093F10024
:103C600033CF811185CF90914702923008F080CFF9
:103C70008091E800877F8093E800909340020E9443
:103C8000371B80914002882311F084E005C08091A9
:103C9000E30087FDFACF81E0809344020E948E18F2
:103CA00067CF80914702813009F062CF81E0933085
:103CB00009F080E0809342021092E9008091E800D0
:103CC000877F8093E8000E94371B52CF0895CF93DF
:103CD000809144028823A1F0C091E900CF709091B7
:103CE000EC00892F817090FD80E8C82B1092E900CC
:103CF0008091E80083FD0E941A1DCF70C093E900F7
:103D0000CF9108950E94891E6894B1110C94181FD8
:103D100008950E94FD1E88F09F5798F0B92F9927AB
:103D2000B751B0F0E1F0660F771F881F991F1AF0A6
:103D3000BA95C9F714C0B13091F00E94171FB1E0D5
:103D400008950C94171F672F782F8827B85F39F0D4
:103D5000B93FCCF3869577956795B395D9F73EF43F
:103D600090958095709561957F4F8F4F9F4F0895E7
:103D7000E89409C097FB3EF4909580957095619505
:103D80007F4F8F4F9F4F9923A9F0F92F96E9BB27BB
:103D90009395F695879577956795B795F111F8CF37
:103DA000FAF4BB0F11F460FF1BC06F5F7F4F8F4FA2
:103DB0009F4F16C0882311F096E911C0772321F098
:103DC0009EE8872F762F05C0662371F096E8862F30
:103DD00070E060E02AF09A95660F771F881FDAF787
:103DE000880F9695879597F9089557FD9058440F39
:103DF000551F59F05F3F71F04795880F97FB991F4A
:103E000061F09F3F79F08795089512161306140606
:103E1000551FF2CF4695F1DF08C016161706180693
:103E2000991FF1CF86957105610508940895E8946E
:103E3000BB2766277727CB0197F908950E94311F8A
:103E40000C94A21F0E94941F38F00E949B1F20F028
:103E5000952311F00C948B1F0C94911F11240C943A
:103E6000181F0E94F51E70F3959FC1F3950F50E047
:103E7000551F629FF001729FBB27F00DB11D639F1C
:103E8000AA27F00DB11DAA1F649F6627B00DA11DC2
:103E9000661F829F2227B00DA11D621F739FB00D68
:103EA000A11D621F839FA00D611D221F749F3327D8
:103EB000A00D611D231F849F600D211D822F762F71
:103EC0006A2F11249F5750409AF0F1F088234AF04E
:103ED000EE0FFF1FBB1F661F771F881F91505040BA
:103EE000A9F79E3F510580F00C948B1F0C94181F6E
:103EF0005F3FE4F3983ED4F3869577956795B79541
:103F0000F795E7959F5FC1F7FE2B880F911D96955A
:103F1000879597F9089597F99F6780E870E060E0CA
:103F200008959FEF80EC089500240A941616170652
:103F300018060906089500240A941216130614069A
:103F400005060895092E0394000C11F4882352F0FD
:103F5000BB0F40F4BF2B11F460FF04C06F5F7F4FB5
:103F60008F4F9F4F089597FB072E16F4009407D0AC
:103F700077FD09D00E94CD1F07FC05D03EF4909537
:103F800081959F4F0895709561957F4F0895EE0F2D
:103F9000FF1F0590F491E02D0994AA1BBB1B51E172
:103FA00007C0AA1FBB1FA617B70710F0A61BB70BA9
:103FB000881F991F5A95A9F780959095BC01CD014E
:103FC0000895F999FECF92BD81BDF89A992780B5E1
:103FD0000895A8E1B0E042E050E00C940920262FBB
:103FE000F999FECF92BD81BDF89A019700B40216EF
:103FF00039F01FBA20BD0FB6F894FA9AF99A0FBE9D
:1040000008950196272F0E94F01F0C94EF1FDC01EA
:10401000CB01FC01F999FECF06C0F2BDE1BDF89AD3
:10402000319600B40D9241505040B8F70895F8947D
:10403000FFCF4803540358035C0360036403680321
:104040006C037003740378037C0380038403880388
:104050008C0390039403200A200A700A700AB20AA3
:10406000CE0A4D0A4D0AD90A4D0A710B710BCF0BBE
:104070004D0A4D0AD80B7B0B7B0B7B0B7B0B7B0B11
:104080007B0B7B0B7B0B7B0B7B0B7B0B7B0B7B0B00
:104090007B0B7B0B7B0B880B960B9D0BA40BAE0B4A
:1040A0003A0C3A0C430C430C450C430C430C430CA8
:1040B0003A0C3A0C4A0C430C430C4A0C431D681D45
:1040C000B81D681DB81D981DD01DB81D241E311EB9
:1040D000EA012808140A321E971729180418CE1767
:1040E0009A1701909192939495976667F0F1F43046
:1040F0003132333435404D36393B04EE03B8037F5B
:0A4100000312032B0344035D0300C8
:00000001FF
